{
  "contractName": "MyAsset",
  "abi": [
    {
      "inputs": [],
      "stateMutability": "nonpayable",
      "type": "constructor"
    },
    {
      "anonymous": false,
      "inputs": [
        {
          "indexed": true,
          "internalType": "address",
          "name": "owner",
          "type": "address"
        },
        {
          "indexed": true,
          "internalType": "address",
          "name": "approved",
          "type": "address"
        },
        {
          "indexed": true,
          "internalType": "uint256",
          "name": "tokenId",
          "type": "uint256"
        }
      ],
      "name": "Approval",
      "type": "event"
    },
    {
      "anonymous": false,
      "inputs": [
        {
          "indexed": true,
          "internalType": "address",
          "name": "owner",
          "type": "address"
        },
        {
          "indexed": true,
          "internalType": "address",
          "name": "operator",
          "type": "address"
        },
        {
          "indexed": false,
          "internalType": "bool",
          "name": "approved",
          "type": "bool"
        }
      ],
      "name": "ApprovalForAll",
      "type": "event"
    },
    {
      "anonymous": false,
      "inputs": [
        {
          "indexed": true,
          "internalType": "address",
          "name": "from",
          "type": "address"
        },
        {
          "indexed": true,
          "internalType": "address",
          "name": "to",
          "type": "address"
        },
        {
          "indexed": true,
          "internalType": "uint256",
          "name": "tokenId",
          "type": "uint256"
        }
      ],
      "name": "Transfer",
      "type": "event"
    },
    {
      "inputs": [],
      "name": "admin",
      "outputs": [
        {
          "internalType": "address",
          "name": "",
          "type": "address"
        }
      ],
      "stateMutability": "view",
      "type": "function",
      "constant": true
    },
    {
      "inputs": [
        {
          "internalType": "address",
          "name": "to",
          "type": "address"
        },
        {
          "internalType": "uint256",
          "name": "tokenId",
          "type": "uint256"
        }
      ],
      "name": "approve",
      "outputs": [],
      "stateMutability": "nonpayable",
      "type": "function"
    },
    {
      "inputs": [
        {
          "internalType": "address",
          "name": "owner",
          "type": "address"
        }
      ],
      "name": "balanceOf",
      "outputs": [
        {
          "internalType": "uint256",
          "name": "",
          "type": "uint256"
        }
      ],
      "stateMutability": "view",
      "type": "function",
      "constant": true
    },
    {
      "inputs": [],
      "name": "data",
      "outputs": [
        {
          "internalType": "string",
          "name": "",
          "type": "string"
        }
      ],
      "stateMutability": "view",
      "type": "function",
      "constant": true
    },
    {
      "inputs": [
        {
          "internalType": "uint256",
          "name": "tokenId",
          "type": "uint256"
        }
      ],
      "name": "getApproved",
      "outputs": [
        {
          "internalType": "address",
          "name": "",
          "type": "address"
        }
      ],
      "stateMutability": "view",
      "type": "function",
      "constant": true
    },
    {
      "inputs": [
        {
          "internalType": "address",
          "name": "owner",
          "type": "address"
        },
        {
          "internalType": "address",
          "name": "operator",
          "type": "address"
        }
      ],
      "name": "isApprovedForAll",
      "outputs": [
        {
          "internalType": "bool",
          "name": "",
          "type": "bool"
        }
      ],
      "stateMutability": "view",
      "type": "function",
      "constant": true
    },
    {
      "inputs": [],
      "name": "name",
      "outputs": [
        {
          "internalType": "string",
          "name": "",
          "type": "string"
        }
      ],
      "stateMutability": "view",
      "type": "function",
      "constant": true
    },
    {
      "inputs": [
        {
          "internalType": "uint256",
          "name": "tokenId",
          "type": "uint256"
        }
      ],
      "name": "ownerOf",
      "outputs": [
        {
          "internalType": "address",
          "name": "",
          "type": "address"
        }
      ],
      "stateMutability": "view",
      "type": "function",
      "constant": true
    },
    {
      "inputs": [
        {
          "internalType": "address",
          "name": "from",
          "type": "address"
        },
        {
          "internalType": "address",
          "name": "to",
          "type": "address"
        },
        {
          "internalType": "uint256",
          "name": "tokenId",
          "type": "uint256"
        }
      ],
      "name": "safeTransferFrom",
      "outputs": [],
      "stateMutability": "nonpayable",
      "type": "function"
    },
    {
      "inputs": [
        {
          "internalType": "address",
          "name": "from",
          "type": "address"
        },
        {
          "internalType": "address",
          "name": "to",
          "type": "address"
        },
        {
          "internalType": "uint256",
          "name": "tokenId",
          "type": "uint256"
        },
        {
          "internalType": "bytes",
          "name": "_data",
          "type": "bytes"
        }
      ],
      "name": "safeTransferFrom",
      "outputs": [],
      "stateMutability": "nonpayable",
      "type": "function"
    },
    {
      "inputs": [
        {
          "internalType": "address",
          "name": "operator",
          "type": "address"
        },
        {
          "internalType": "bool",
          "name": "approved",
          "type": "bool"
        }
      ],
      "name": "setApprovalForAll",
      "outputs": [],
      "stateMutability": "nonpayable",
      "type": "function"
    },
    {
      "inputs": [
        {
          "internalType": "bytes4",
          "name": "interfaceId",
          "type": "bytes4"
        }
      ],
      "name": "supportsInterface",
      "outputs": [
        {
          "internalType": "bool",
          "name": "",
          "type": "bool"
        }
      ],
      "stateMutability": "view",
      "type": "function",
      "constant": true
    },
    {
      "inputs": [],
      "name": "symbol",
      "outputs": [
        {
          "internalType": "string",
          "name": "",
          "type": "string"
        }
      ],
      "stateMutability": "view",
      "type": "function",
      "constant": true
    },
    {
      "inputs": [
        {
          "internalType": "uint256",
          "name": "tokenId",
          "type": "uint256"
        }
      ],
      "name": "tokenURI",
      "outputs": [
        {
          "internalType": "string",
          "name": "",
          "type": "string"
        }
      ],
      "stateMutability": "view",
      "type": "function",
      "constant": true
    },
    {
      "inputs": [
        {
          "internalType": "address",
          "name": "from",
          "type": "address"
        },
        {
          "internalType": "address",
          "name": "to",
          "type": "address"
        },
        {
          "internalType": "uint256",
          "name": "tokenId",
          "type": "uint256"
        }
      ],
      "name": "transferFrom",
      "outputs": [],
      "stateMutability": "nonpayable",
      "type": "function"
    },
    {
      "inputs": [
        {
          "internalType": "string",
          "name": "_uri",
          "type": "string"
        }
      ],
      "name": "setStr",
      "outputs": [],
      "stateMutability": "nonpayable",
      "type": "function"
    },
    {
      "inputs": [
        {
          "internalType": "string",
          "name": "tokenURI",
          "type": "string"
        }
      ],
      "name": "creatAsset",
      "outputs": [],
      "stateMutability": "nonpayable",
      "type": "function"
    },
    {
      "inputs": [
        {
          "internalType": "uint256",
          "name": "id",
          "type": "uint256"
        }
      ],
      "name": "getAssetURI",
      "outputs": [
        {
          "internalType": "string",
          "name": "",
          "type": "string"
        }
      ],
      "stateMutability": "view",
      "type": "function",
      "constant": true
    },
    {
      "inputs": [
        {
          "internalType": "uint256",
          "name": "id",
          "type": "uint256"
        }
      ],
      "name": "destroyAsset",
      "outputs": [],
      "stateMutability": "nonpayable",
      "type": "function"
    },
    {
      "inputs": [],
      "name": "totalAssetCount",
      "outputs": [
        {
          "internalType": "uint256",
          "name": "",
          "type": "uint256"
        }
      ],
      "stateMutability": "view",
      "type": "function",
      "constant": true
    },
    {
      "inputs": [
        {
          "internalType": "uint256",
          "name": "id",
          "type": "uint256"
        }
      ],
      "name": "AssetExists",
      "outputs": [
        {
          "internalType": "bool",
          "name": "",
          "type": "bool"
        }
      ],
      "stateMutability": "view",
      "type": "function",
      "constant": true
    }
  ],
  "bytecode": "0x60806040523480156200001157600080fd5b506040518060400160405280600b81526020017f5075626c696341737365740000000000000000000000000000000000000000008152506040518060400160405280600281526020017f5041000000000000000000000000000000000000000000000000000000000000815250816000908051906020019062000096929190620000f9565b508060019080519060200190620000af929190620000f9565b50505033600760006101000a81548173ffffffffffffffffffffffffffffffffffffffff021916908373ffffffffffffffffffffffffffffffffffffffff1602179055506200020e565b8280546200010790620001a9565b90600052602060002090601f0160209004810192826200012b576000855562000177565b82601f106200014657805160ff191683800117855562000177565b8280016001018555821562000177579182015b828111156200017657825182559160200191906001019062000159565b5b5090506200018691906200018a565b5090565b5b80821115620001a55760008160009055506001016200018b565b5090565b60006002820490506001821680620001c257607f821691505b60208210811415620001d957620001d8620001df565b5b50919050565b7f4e487b7100000000000000000000000000000000000000000000000000000000600052602260045260246000fd5b612f60806200021e6000396000f3fe608060405234801561001057600080fd5b50600436106101375760003560e01c80636352211e116100b85780639cd7fdc91161007c5780639cd7fdc91461034c578063a22cb4651461037c578063b88d4fde14610398578063c87b56dd146103b4578063e985e9c5146103e4578063f851a4401461041457610137565b80636352211e1461029257806370a08231146102c257806373d4a13a146102f257806395d89b411461031057806398b86b541461032e57610137565b806323b872dd116100ff57806323b872dd146101f257806333168ca01461020e57806342842e0e1461023e578063474c15201461025a57806353f6cd0e1461027657610137565b806301ffc9a71461013c57806306fdde031461016c578063081812fc1461018a578063095ea7b3146101ba578063191347df146101d6575b600080fd5b61015660048036038101906101519190612053565b610432565b6040516101639190612898565b60405180910390f35b610174610514565b60405161018191906128b3565b60405180910390f35b6101a4600480360381019061019f91906120e6565b6105a6565b6040516101b19190612831565b60405180910390f35b6101d460048036038101906101cf9190612017565b61062b565b005b6101f060048036038101906101eb91906120a5565b610743565b005b61020c60048036038101906102079190611f11565b61075d565b005b610228600480360381019061022391906120e6565b6107bd565b6040516102359190612898565b60405180910390f35b61025860048036038101906102539190611f11565b6107cf565b005b610274600480360381019061026f91906120e6565b6107ef565b005b610290600480360381019061028b91906120a5565b6107fb565b005b6102ac60048036038101906102a791906120e6565b6108e3565b6040516102b99190612831565b60405180910390f35b6102dc60048036038101906102d79190611eac565b610995565b6040516102e99190612af5565b60405180910390f35b6102fa610a4d565b60405161030791906128b3565b60405180910390f35b610318610adb565b60405161032591906128b3565b60405180910390f35b610336610b6d565b6040516103439190612af5565b60405180910390f35b610366600480360381019061036191906120e6565b610b7e565b60405161037391906128b3565b60405180910390f35b61039660048036038101906103919190611fdb565b610b90565b005b6103b260048036038101906103ad9190611f60565b610d11565b005b6103ce60048036038101906103c991906120e6565b610d73565b6040516103db91906128b3565b60405180910390f35b6103fe60048036038101906103f99190611ed5565b610ec5565b60405161040b9190612898565b60405180910390f35b61041c610f59565b6040516104299190612831565b60405180910390f35b60007f80ac58cd000000000000000000000000000000000000000000000000000000007bffffffffffffffffffffffffffffffffffffffffffffffffffffffff1916827bffffffffffffffffffffffffffffffffffffffffffffffffffffffff191614806104fd57507f5b5e139f000000000000000000000000000000000000000000000000000000007bffffffffffffffffffffffffffffffffffffffffffffffffffffffff1916827bffffffffffffffffffffffffffffffffffffffffffffffffffffffff1916145b8061050d575061050c82610f7f565b5b9050919050565b60606000805461052390612d55565b80601f016020809104026020016040519081016040528092919081815260200182805461054f90612d55565b801561059c5780601f106105715761010080835404028352916020019161059c565b820191906000526020600020905b81548152906001019060200180831161057f57829003601f168201915b5050505050905090565b60006105b182610fe9565b6105f0576040517f08c379a00000000000000000000000000000000000000000000000000000000081526004016105e790612a55565b60405180910390fd5b6004600083815260200190815260200160002060009054906101000a900473ffffffffffffffffffffffffffffffffffffffff169050919050565b6000610636826108e3565b90508073ffffffffffffffffffffffffffffffffffffffff168373ffffffffffffffffffffffffffffffffffffffff1614156106a7576040517f08c379a000000000000000000000000000000000000000000000000000000000815260040161069e90612ab5565b60405180910390fd5b8073ffffffffffffffffffffffffffffffffffffffff166106c6611055565b73ffffffffffffffffffffffffffffffffffffffff1614806106f557506106f4816106ef611055565b610ec5565b5b610734576040517f08c379a000000000000000000000000000000000000000000000000000000000815260040161072b90612995565b60405180910390fd5b61073e838361105d565b505050565b8060089080519060200190610759929190611c90565b5050565b61076e610768611055565b82611116565b6107ad576040517f08c379a00000000000000000000000000000000000000000000000000000000081526004016107a490612ad5565b60405180910390fd5b6107b88383836111f4565b505050565b60006107c882610fe9565b9050919050565b6107ea83838360405180602001604052806000815250610d11565b505050565b6107f881611450565b50565b600760009054906101000a900473ffffffffffffffffffffffffffffffffffffffff1673ffffffffffffffffffffffffffffffffffffffff163373ffffffffffffffffffffffffffffffffffffffff161461088b576040517f08c379a0000000000000000000000000000000000000000000000000000000008152600401610882906128d5565b60405180910390fd5b61089560096114a3565b60006108a160096114b9565b90506108ad33826114c7565b6108b78183611695565b81600a600083815260200190815260200160002090805190602001906108de929190611c90565b505050565b6000806002600084815260200190815260200160002060009054906101000a900473ffffffffffffffffffffffffffffffffffffffff169050600073ffffffffffffffffffffffffffffffffffffffff168173ffffffffffffffffffffffffffffffffffffffff16141561098c576040517f08c379a0000000000000000000000000000000000000000000000000000000008152600401610983906129d5565b60405180910390fd5b80915050919050565b60008073ffffffffffffffffffffffffffffffffffffffff168273ffffffffffffffffffffffffffffffffffffffff161415610a06576040517f08c379a00000000000000000000000000000000000000000000000000000000081526004016109fd906129b5565b60405180910390fd5b600360008373ffffffffffffffffffffffffffffffffffffffff1673ffffffffffffffffffffffffffffffffffffffff168152602001908152602001600020549050919050565b60088054610a5a90612d55565b80601f0160208091040260200160405190810160405280929190818152602001828054610a8690612d55565b8015610ad35780601f10610aa857610100808354040283529160200191610ad3565b820191906000526020600020905b815481529060010190602001808311610ab657829003601f168201915b505050505081565b606060018054610aea90612d55565b80601f0160208091040260200160405190810160405280929190818152602001828054610b1690612d55565b8015610b635780601f10610b3857610100808354040283529160200191610b63565b820191906000526020600020905b815481529060010190602001808311610b4657829003601f168201915b5050505050905090565b6000610b7960096114b9565b905090565b6060610b8982610d73565b9050919050565b610b98611055565b73ffffffffffffffffffffffffffffffffffffffff168273ffffffffffffffffffffffffffffffffffffffff161415610c06576040517f08c379a0000000000000000000000000000000000000000000000000000000008152600401610bfd90612955565b60405180910390fd5b8060056000610c13611055565b73ffffffffffffffffffffffffffffffffffffffff1673ffffffffffffffffffffffffffffffffffffffff16815260200190815260200160002060008473ffffffffffffffffffffffffffffffffffffffff1673ffffffffffffffffffffffffffffffffffffffff16815260200190815260200160002060006101000a81548160ff0219169083151502179055508173ffffffffffffffffffffffffffffffffffffffff16610cc0611055565b73ffffffffffffffffffffffffffffffffffffffff167f17307eab39ab6107e8899845ad3d59bd9653f200f220920489ca2b5937696c3183604051610d059190612898565b60405180910390a35050565b610d22610d1c611055565b83611116565b610d61576040517f08c379a0000000000000000000000000000000000000000000000000000000008152600401610d5890612ad5565b60405180910390fd5b610d6d84848484611709565b50505050565b6060610d7e82610fe9565b610dbd576040517f08c379a0000000000000000000000000000000000000000000000000000000008152600401610db490612a35565b60405180910390fd5b6000600660008481526020019081526020016000208054610ddd90612d55565b80601f0160208091040260200160405190810160405280929190818152602001828054610e0990612d55565b8015610e565780601f10610e2b57610100808354040283529160200191610e56565b820191906000526020600020905b815481529060010190602001808311610e3957829003601f168201915b505050505090506000610e67611765565b9050600081511415610e7d578192505050610ec0565b600082511115610eb2578082604051602001610e9a92919061280d565b60405160208183030381529060405292505050610ec0565b610ebb8461177c565b925050505b919050565b6000600560008473ffffffffffffffffffffffffffffffffffffffff1673ffffffffffffffffffffffffffffffffffffffff16815260200190815260200160002060008373ffffffffffffffffffffffffffffffffffffffff1673ffffffffffffffffffffffffffffffffffffffff16815260200190815260200160002060009054906101000a900460ff16905092915050565b600760009054906101000a900473ffffffffffffffffffffffffffffffffffffffff1681565b60007f01ffc9a7000000000000000000000000000000000000000000000000000000007bffffffffffffffffffffffffffffffffffffffffffffffffffffffff1916827bffffffffffffffffffffffffffffffffffffffffffffffffffffffff1916149050919050565b60008073ffffffffffffffffffffffffffffffffffffffff166002600084815260200190815260200160002060009054906101000a900473ffffffffffffffffffffffffffffffffffffffff1673ffffffffffffffffffffffffffffffffffffffff1614159050919050565b600033905090565b816004600083815260200190815260200160002060006101000a81548173ffffffffffffffffffffffffffffffffffffffff021916908373ffffffffffffffffffffffffffffffffffffffff160217905550808273ffffffffffffffffffffffffffffffffffffffff166110d0836108e3565b73ffffffffffffffffffffffffffffffffffffffff167f8c5be1e5ebec7d5bd14f71427d1e84f3dd0314c0f7b2291e5b200ac8c7c3b92560405160405180910390a45050565b600061112182610fe9565b611160576040517f08c379a000000000000000000000000000000000000000000000000000000000815260040161115790612975565b60405180910390fd5b600061116b836108e3565b90508073ffffffffffffffffffffffffffffffffffffffff168473ffffffffffffffffffffffffffffffffffffffff1614806111da57508373ffffffffffffffffffffffffffffffffffffffff166111c2846105a6565b73ffffffffffffffffffffffffffffffffffffffff16145b806111eb57506111ea8185610ec5565b5b91505092915050565b8273ffffffffffffffffffffffffffffffffffffffff16611214826108e3565b73ffffffffffffffffffffffffffffffffffffffff161461126a576040517f08c379a000000000000000000000000000000000000000000000000000000000815260040161126190612a75565b60405180910390fd5b600073ffffffffffffffffffffffffffffffffffffffff168273ffffffffffffffffffffffffffffffffffffffff1614156112da576040517f08c379a00000000000000000000000000000000000000000000000000000000081526004016112d190612935565b60405180910390fd5b6112e5838383611823565b6112f060008261105d565b6001600360008573ffffffffffffffffffffffffffffffffffffffff1673ffffffffffffffffffffffffffffffffffffffff16815260200190815260200160002060008282546113409190612c6b565b925050819055506001600360008473ffffffffffffffffffffffffffffffffffffffff1673ffffffffffffffffffffffffffffffffffffffff16815260200190815260200160002060008282546113979190612be4565b92505081905550816002600083815260200190815260200160002060006101000a81548173ffffffffffffffffffffffffffffffffffffffff021916908373ffffffffffffffffffffffffffffffffffffffff160217905550808273ffffffffffffffffffffffffffffffffffffffff168473ffffffffffffffffffffffffffffffffffffffff167fddf252ad1be2c89b69c2b068fc378daa952ba7f163c4a11628f55a4df523b3ef60405160405180910390a4505050565b61145981611828565b600060066000838152602001908152602001600020805461147990612d55565b9050146114a05760066000828152602001908152602001600020600061149f9190611d16565b5b50565b6001816000016000828254019250508190555050565b600081600001549050919050565b600073ffffffffffffffffffffffffffffffffffffffff168273ffffffffffffffffffffffffffffffffffffffff161415611537576040517f08c379a000000000000000000000000000000000000000000000000000000000815260040161152e90612a15565b60405180910390fd5b61154081610fe9565b15611580576040517f08c379a000000000000000000000000000000000000000000000000000000000815260040161157790612915565b60405180910390fd5b61158c60008383611823565b6001600360008473ffffffffffffffffffffffffffffffffffffffff1673ffffffffffffffffffffffffffffffffffffffff16815260200190815260200160002060008282546115dc9190612be4565b92505081905550816002600083815260200190815260200160002060006101000a81548173ffffffffffffffffffffffffffffffffffffffff021916908373ffffffffffffffffffffffffffffffffffffffff160217905550808273ffffffffffffffffffffffffffffffffffffffff16600073ffffffffffffffffffffffffffffffffffffffff167fddf252ad1be2c89b69c2b068fc378daa952ba7f163c4a11628f55a4df523b3ef60405160405180910390a45050565b61169e82610fe9565b6116dd576040517f08c379a00000000000000000000000000000000000000000000000000000000081526004016116d4906129f5565b60405180910390fd5b80600660008481526020019081526020016000209080519060200190611704929190611c90565b505050565b6117148484846111f4565b61172084848484611939565b61175f576040517f08c379a0000000000000000000000000000000000000000000000000000000008152600401611756906128f5565b60405180910390fd5b50505050565b606060405180602001604052806000815250905090565b606061178782610fe9565b6117c6576040517f08c379a00000000000000000000000000000000000000000000000000000000081526004016117bd90612a95565b60405180910390fd5b60006117d0611765565b905060008151116117f0576040518060200160405280600081525061181b565b806117fa84611ad0565b60405160200161180b92919061280d565b6040516020818303038152906040525b915050919050565b505050565b6000611833826108e3565b905061184181600084611823565b61184c60008361105d565b6001600360008373ffffffffffffffffffffffffffffffffffffffff1673ffffffffffffffffffffffffffffffffffffffff168152602001908152602001600020600082825461189c9190612c6b565b925050819055506002600083815260200190815260200160002060006101000a81549073ffffffffffffffffffffffffffffffffffffffff021916905581600073ffffffffffffffffffffffffffffffffffffffff168273ffffffffffffffffffffffffffffffffffffffff167fddf252ad1be2c89b69c2b068fc378daa952ba7f163c4a11628f55a4df523b3ef60405160405180910390a45050565b600061195a8473ffffffffffffffffffffffffffffffffffffffff16611c7d565b15611ac3578373ffffffffffffffffffffffffffffffffffffffff1663150b7a02611983611055565b8786866040518563ffffffff1660e01b81526004016119a5949392919061284c565b602060405180830381600087803b1580156119bf57600080fd5b505af19250505080156119f057506040513d601f19601f820116820180604052508101906119ed919061207c565b60015b611a73573d8060008114611a20576040519150601f19603f3d011682016040523d82523d6000602084013e611a25565b606091505b50600081511415611a6b576040517f08c379a0000000000000000000000000000000000000000000000000000000008152600401611a62906128f5565b60405180910390fd5b805181602001fd5b63150b7a0260e01b7bffffffffffffffffffffffffffffffffffffffffffffffffffffffff1916817bffffffffffffffffffffffffffffffffffffffffffffffffffffffff191614915050611ac8565b600190505b949350505050565b60606000821415611b18576040518060400160405280600181526020017f30000000000000000000000000000000000000000000000000000000000000008152509050611c78565b600082905060005b60008214611b4a578080611b3390612d87565b915050600a82611b439190612c3a565b9150611b20565b60008167ffffffffffffffff811115611b8c577f4e487b7100000000000000000000000000000000000000000000000000000000600052604160045260246000fd5b6040519080825280601f01601f191660200182016040528015611bbe5781602001600182028036833780820191505090505b5090505b60008514611c7157600182611bd79190612c6b565b9150600a85611be69190612dd0565b6030611bf29190612be4565b60f81b818381518110611c2e577f4e487b7100000000000000000000000000000000000000000000000000000000600052603260045260246000fd5b60200101907effffffffffffffffffffffffffffffffffffffffffffffffffffffffffffff1916908160001a905350600a85611c6a9190612c3a565b9450611bc2565b8093505050505b919050565b600080823b905060008111915050919050565b828054611c9c90612d55565b90600052602060002090601f016020900481019282611cbe5760008555611d05565b82601f10611cd757805160ff1916838001178555611d05565b82800160010185558215611d05579182015b82811115611d04578251825591602001919060010190611ce9565b5b509050611d129190611d56565b5090565b508054611d2290612d55565b6000825580601f10611d345750611d53565b601f016020900490600052602060002090810190611d529190611d56565b5b50565b5b80821115611d6f576000816000905550600101611d57565b5090565b6000611d86611d8184612b41565b612b10565b905082815260208101848484011115611d9e57600080fd5b611da9848285612d13565b509392505050565b6000611dc4611dbf84612b71565b612b10565b905082815260208101848484011115611ddc57600080fd5b611de7848285612d13565b509392505050565b600081359050611dfe81612ece565b92915050565b600081359050611e1381612ee5565b92915050565b600081359050611e2881612efc565b92915050565b600081519050611e3d81612efc565b92915050565b600082601f830112611e5457600080fd5b8135611e64848260208601611d73565b91505092915050565b600082601f830112611e7e57600080fd5b8135611e8e848260208601611db1565b91505092915050565b600081359050611ea681612f13565b92915050565b600060208284031215611ebe57600080fd5b6000611ecc84828501611def565b91505092915050565b60008060408385031215611ee857600080fd5b6000611ef685828601611def565b9250506020611f0785828601611def565b9150509250929050565b600080600060608486031215611f2657600080fd5b6000611f3486828701611def565b9350506020611f4586828701611def565b9250506040611f5686828701611e97565b9150509250925092565b60008060008060808587031215611f7657600080fd5b6000611f8487828801611def565b9450506020611f9587828801611def565b9350506040611fa687828801611e97565b925050606085013567ffffffffffffffff811115611fc357600080fd5b611fcf87828801611e43565b91505092959194509250565b60008060408385031215611fee57600080fd5b6000611ffc85828601611def565b925050602061200d85828601611e04565b9150509250929050565b6000806040838503121561202a57600080fd5b600061203885828601611def565b925050602061204985828601611e97565b9150509250929050565b60006020828403121561206557600080fd5b600061207384828501611e19565b91505092915050565b60006020828403121561208e57600080fd5b600061209c84828501611e2e565b91505092915050565b6000602082840312156120b757600080fd5b600082013567ffffffffffffffff8111156120d157600080fd5b6120dd84828501611e6d565b91505092915050565b6000602082840312156120f857600080fd5b600061210684828501611e97565b91505092915050565b61211881612c9f565b82525050565b61212781612cb1565b82525050565b600061213882612ba1565b6121428185612bb7565b9350612152818560208601612d22565b61215b81612ebd565b840191505092915050565b600061217182612bac565b61217b8185612bc8565b935061218b818560208601612d22565b61219481612ebd565b840191505092915050565b60006121aa82612bac565b6121b48185612bd9565b93506121c4818560208601612d22565b80840191505092915050565b60006121dd601c83612bc8565b91507f6f6e6c792061646d696e2063616e2063726561746520617373657473000000006000830152602082019050919050565b600061221d603283612bc8565b91507f4552433732313a207472616e7366657220746f206e6f6e20455243373231526560008301527f63656976657220696d706c656d656e74657200000000000000000000000000006020830152604082019050919050565b6000612283601c83612bc8565b91507f4552433732313a20746f6b656e20616c7265616479206d696e746564000000006000830152602082019050919050565b60006122c3602483612bc8565b91507f4552433732313a207472616e7366657220746f20746865207a65726f2061646460008301527f72657373000000000000000000000000000000000000000000000000000000006020830152604082019050919050565b6000612329601983612bc8565b91507f4552433732313a20617070726f766520746f2063616c6c6572000000000000006000830152602082019050919050565b6000612369602c83612bc8565b91507f4552433732313a206f70657261746f7220717565727920666f72206e6f6e657860008301527f697374656e7420746f6b656e00000000000000000000000000000000000000006020830152604082019050919050565b60006123cf603883612bc8565b91507f4552433732313a20617070726f76652063616c6c6572206973206e6f74206f7760008301527f6e6572206e6f7220617070726f76656420666f7220616c6c00000000000000006020830152604082019050919050565b6000612435602a83612bc8565b91507f4552433732313a2062616c616e636520717565727920666f7220746865207a6560008301527f726f2061646472657373000000000000000000000000000000000000000000006020830152604082019050919050565b600061249b602983612bc8565b91507f4552433732313a206f776e657220717565727920666f72206e6f6e657869737460008301527f656e7420746f6b656e00000000000000000000000000000000000000000000006020830152604082019050919050565b6000612501602e83612bc8565b91507f45524337323155524953746f726167653a2055524920736574206f66206e6f6e60008301527f6578697374656e7420746f6b656e0000000000000000000000000000000000006020830152604082019050919050565b6000612567602083612bc8565b91507f4552433732313a206d696e7420746f20746865207a65726f20616464726573736000830152602082019050919050565b60006125a7603183612bc8565b91507f45524337323155524953746f726167653a2055524920717565727920666f722060008301527f6e6f6e6578697374656e7420746f6b656e0000000000000000000000000000006020830152604082019050919050565b600061260d602c83612bc8565b91507f4552433732313a20617070726f76656420717565727920666f72206e6f6e657860008301527f697374656e7420746f6b656e00000000000000000000000000000000000000006020830152604082019050919050565b6000612673602983612bc8565b91507f4552433732313a207472616e73666572206f6620746f6b656e2074686174206960008301527f73206e6f74206f776e00000000000000000000000000000000000000000000006020830152604082019050919050565b60006126d9602f83612bc8565b91507f4552433732314d657461646174613a2055524920717565727920666f72206e6f60008301527f6e6578697374656e7420746f6b656e00000000000000000000000000000000006020830152604082019050919050565b600061273f602183612bc8565b91507f4552433732313a20617070726f76616c20746f2063757272656e74206f776e6560008301527f72000000000000000000000000000000000000000000000000000000000000006020830152604082019050919050565b60006127a5603183612bc8565b91507f4552433732313a207472616e736665722063616c6c6572206973206e6f74206f60008301527f776e6572206e6f7220617070726f7665640000000000000000000000000000006020830152604082019050919050565b61280781612d09565b82525050565b6000612819828561219f565b9150612825828461219f565b91508190509392505050565b6000602082019050612846600083018461210f565b92915050565b6000608082019050612861600083018761210f565b61286e602083018661210f565b61287b60408301856127fe565b818103606083015261288d818461212d565b905095945050505050565b60006020820190506128ad600083018461211e565b92915050565b600060208201905081810360008301526128cd8184612166565b905092915050565b600060208201905081810360008301526128ee816121d0565b9050919050565b6000602082019050818103600083015261290e81612210565b9050919050565b6000602082019050818103600083015261292e81612276565b9050919050565b6000602082019050818103600083015261294e816122b6565b9050919050565b6000602082019050818103600083015261296e8161231c565b9050919050565b6000602082019050818103600083015261298e8161235c565b9050919050565b600060208201905081810360008301526129ae816123c2565b9050919050565b600060208201905081810360008301526129ce81612428565b9050919050565b600060208201905081810360008301526129ee8161248e565b9050919050565b60006020820190508181036000830152612a0e816124f4565b9050919050565b60006020820190508181036000830152612a2e8161255a565b9050919050565b60006020820190508181036000830152612a4e8161259a565b9050919050565b60006020820190508181036000830152612a6e81612600565b9050919050565b60006020820190508181036000830152612a8e81612666565b9050919050565b60006020820190508181036000830152612aae816126cc565b9050919050565b60006020820190508181036000830152612ace81612732565b9050919050565b60006020820190508181036000830152612aee81612798565b9050919050565b6000602082019050612b0a60008301846127fe565b92915050565b6000604051905081810181811067ffffffffffffffff82111715612b3757612b36612e8e565b5b8060405250919050565b600067ffffffffffffffff821115612b5c57612b5b612e8e565b5b601f19601f8301169050602081019050919050565b600067ffffffffffffffff821115612b8c57612b8b612e8e565b5b601f19601f8301169050602081019050919050565b600081519050919050565b600081519050919050565b600082825260208201905092915050565b600082825260208201905092915050565b600081905092915050565b6000612bef82612d09565b9150612bfa83612d09565b9250827fffffffffffffffffffffffffffffffffffffffffffffffffffffffffffffffff03821115612c2f57612c2e612e01565b5b828201905092915050565b6000612c4582612d09565b9150612c5083612d09565b925082612c6057612c5f612e30565b5b828204905092915050565b6000612c7682612d09565b9150612c8183612d09565b925082821015612c9457612c93612e01565b5b828203905092915050565b6000612caa82612ce9565b9050919050565b60008115159050919050565b60007fffffffff0000000000000000000000000000000000000000000000000000000082169050919050565b600073ffffffffffffffffffffffffffffffffffffffff82169050919050565b6000819050919050565b82818337600083830152505050565b60005b83811015612d40578082015181840152602081019050612d25565b83811115612d4f576000848401525b50505050565b60006002820490506001821680612d6d57607f821691505b60208210811415612d8157612d80612e5f565b5b50919050565b6000612d9282612d09565b91507fffffffffffffffffffffffffffffffffffffffffffffffffffffffffffffffff821415612dc557612dc4612e01565b5b600182019050919050565b6000612ddb82612d09565b9150612de683612d09565b925082612df657612df5612e30565b5b828206905092915050565b7f4e487b7100000000000000000000000000000000000000000000000000000000600052601160045260246000fd5b7f4e487b7100000000000000000000000000000000000000000000000000000000600052601260045260246000fd5b7f4e487b7100000000000000000000000000000000000000000000000000000000600052602260045260246000fd5b7f4e487b7100000000000000000000000000000000000000000000000000000000600052604160045260246000fd5b6000601f19601f8301169050919050565b612ed781612c9f565b8114612ee257600080fd5b50565b612eee81612cb1565b8114612ef957600080fd5b50565b612f0581612cbd565b8114612f1057600080fd5b50565b612f1c81612d09565b8114612f2757600080fd5b5056fea264697066735822122098c95becd03e297035d475493c4b7b207651b267d378e81d072296d727d05e7e64736f6c63430008000033",
  "immutableReferences": {},
  "source": "// SPDX-License-Identifier: MIT\npragma solidity ^0.8.0;\n\n//import \"@openzeppelin/contracts/token/ERC721/ERC721.sol\";\nimport \"@openzeppelin/contracts/token/ERC721/extensions/ERC721URIStorage.sol\";\n//import \"@openzeppelin/contracts/token/ERC721/extensions/ERC721Enumerable.sol\";\nimport \"@openzeppelin/contracts/utils/Counters.sol\";\n\n\ncontract MyAsset is ERC721URIStorage{\n\n  \taddress public admin;\n  \tstring public data;\n\n  \tusing Counters for Counters.Counter;\n    Counters.Counter private _tokenIds;   \n\n    mapping(uint => string) allTokens; \n\n\n    //admin is the contract deployer\n    constructor () ERC721(\"PublicAsset\", \"PA\") { //(name,symbol)\n      \tadmin = msg.sender;\n    }\n    \n\n    function setStr(string memory _uri) public {\n    \t  data = _uri;\n    }\n\n\n    //access of this function should be admin specific not public/ for testing I put public\n    function creatAsset(string memory tokenURI) public { \n\n    \trequire(msg.sender == admin, 'only admin can create assets');\n     \n    \t  _tokenIds.increment();\n        uint256 newItemId = _tokenIds.current();\n\n        _mint(msg.sender, newItemId);\n        _setTokenURI(newItemId, tokenURI);\n        \n        allTokens[newItemId]=tokenURI;\n        \n    }\n    \n    function getAssetURI(uint id) public view returns(string memory){\n        return tokenURI(id);\n    }\n\n\n    function destroyAsset(uint id) public {\n    \t_burn(id);\n    }\n\n    function totalAssetCount()public view returns(uint){\n        return _tokenIds.current();\n    }\n\n    function AssetExists(uint256 id) public view returns(bool){\n        return _exists(id);\n    }\n    \n    \n}",
  "sourcePath": "/Users/admin/Documents/EthWorkspace/PubAssets/contracts/MyAsset.sol",
  "compiler": {
    "name": "solc",
    "version": "0.8.0+commit.c7dfd78e.Emscripten.clang"
  },
  "schemaVersion": "3.4.7",
  "updatedAt": "2022-04-10T14:02:45.361Z",
  "networkType": "ethereum",
  "devdoc": {
    "kind": "dev",
    "methods": {
      "approve(address,uint256)": {
        "details": "See {IERC721-approve}."
      },
      "balanceOf(address)": {
        "details": "See {IERC721-balanceOf}."
      },
      "getApproved(uint256)": {
        "details": "See {IERC721-getApproved}."
      },
      "isApprovedForAll(address,address)": {
        "details": "See {IERC721-isApprovedForAll}."
      },
      "name()": {
        "details": "See {IERC721Metadata-name}."
      },
      "ownerOf(uint256)": {
        "details": "See {IERC721-ownerOf}."
      },
      "safeTransferFrom(address,address,uint256)": {
        "details": "See {IERC721-safeTransferFrom}."
      },
      "safeTransferFrom(address,address,uint256,bytes)": {
        "details": "See {IERC721-safeTransferFrom}."
      },
      "setApprovalForAll(address,bool)": {
        "details": "See {IERC721-setApprovalForAll}."
      },
      "supportsInterface(bytes4)": {
        "details": "See {IERC165-supportsInterface}."
      },
      "symbol()": {
        "details": "See {IERC721Metadata-symbol}."
      },
      "tokenURI(uint256)": {
        "details": "See {IERC721Metadata-tokenURI}."
      },
      "transferFrom(address,address,uint256)": {
        "details": "See {IERC721-transferFrom}."
      }
    },
    "version": 1
  },
  "userdoc": {
    "kind": "user",
    "methods": {},
    "version": 1
  }
}